{
  "address": "0x45685bEF315a39a064cA6E88eaB910E37137a13a",
  "abi": [
    {
      "inputs": [
        {
          "internalType": "bool",
          "name": "everyoneMint",
          "type": "bool"
        }
      ],
      "stateMutability": "nonpayable",
      "type": "constructor"
    },
    {
      "anonymous": false,
      "inputs": [
        {
          "indexed": true,
          "internalType": "address",
          "name": "account",
          "type": "address"
        },
        {
          "indexed": true,
          "internalType": "address",
          "name": "operator",
          "type": "address"
        },
        {
          "indexed": false,
          "internalType": "bool",
          "name": "approved",
          "type": "bool"
        }
      ],
      "name": "ApprovalForAll",
      "type": "event"
    },
    {
      "anonymous": false,
      "inputs": [
        {
          "indexed": true,
          "internalType": "address",
          "name": "previousOwner",
          "type": "address"
        },
        {
          "indexed": true,
          "internalType": "address",
          "name": "newOwner",
          "type": "address"
        }
      ],
      "name": "OwnershipTransferred",
      "type": "event"
    },
    {
      "anonymous": false,
      "inputs": [
        {
          "indexed": true,
          "internalType": "address",
          "name": "operator",
          "type": "address"
        },
        {
          "indexed": true,
          "internalType": "address",
          "name": "from",
          "type": "address"
        },
        {
          "indexed": true,
          "internalType": "address",
          "name": "to",
          "type": "address"
        },
        {
          "indexed": false,
          "internalType": "uint256[]",
          "name": "ids",
          "type": "uint256[]"
        },
        {
          "indexed": false,
          "internalType": "uint256[]",
          "name": "values",
          "type": "uint256[]"
        }
      ],
      "name": "TransferBatch",
      "type": "event"
    },
    {
      "anonymous": false,
      "inputs": [
        {
          "indexed": true,
          "internalType": "address",
          "name": "operator",
          "type": "address"
        },
        {
          "indexed": true,
          "internalType": "address",
          "name": "from",
          "type": "address"
        },
        {
          "indexed": true,
          "internalType": "address",
          "name": "to",
          "type": "address"
        },
        {
          "indexed": false,
          "internalType": "uint256",
          "name": "id",
          "type": "uint256"
        },
        {
          "indexed": false,
          "internalType": "uint256",
          "name": "value",
          "type": "uint256"
        }
      ],
      "name": "TransferSingle",
      "type": "event"
    },
    {
      "anonymous": false,
      "inputs": [
        {
          "indexed": false,
          "internalType": "string",
          "name": "value",
          "type": "string"
        },
        {
          "indexed": true,
          "internalType": "uint256",
          "name": "id",
          "type": "uint256"
        }
      ],
      "name": "URI",
      "type": "event"
    },
    {
      "inputs": [
        {
          "internalType": "address",
          "name": "account",
          "type": "address"
        },
        {
          "internalType": "uint256",
          "name": "id",
          "type": "uint256"
        }
      ],
      "name": "balanceOf",
      "outputs": [
        {
          "internalType": "uint256",
          "name": "",
          "type": "uint256"
        }
      ],
      "stateMutability": "view",
      "type": "function"
    },
    {
      "inputs": [
        {
          "internalType": "address[]",
          "name": "accounts",
          "type": "address[]"
        },
        {
          "internalType": "uint256[]",
          "name": "ids",
          "type": "uint256[]"
        }
      ],
      "name": "balanceOfBatch",
      "outputs": [
        {
          "internalType": "uint256[]",
          "name": "",
          "type": "uint256[]"
        }
      ],
      "stateMutability": "view",
      "type": "function"
    },
    {
      "inputs": [
        {
          "internalType": "uint256",
          "name": "id",
          "type": "uint256"
        }
      ],
      "name": "getCollection",
      "outputs": [
        {
          "internalType": "uint16",
          "name": "",
          "type": "uint16"
        }
      ],
      "stateMutability": "view",
      "type": "function"
    },
    {
      "inputs": [
        {
          "internalType": "address",
          "name": "account",
          "type": "address"
        },
        {
          "internalType": "address",
          "name": "operator",
          "type": "address"
        }
      ],
      "name": "isApprovedForAll",
      "outputs": [
        {
          "internalType": "bool",
          "name": "",
          "type": "bool"
        }
      ],
      "stateMutability": "view",
      "type": "function"
    },
    {
      "inputs": [
        {
          "internalType": "string",
          "name": "baseURI",
          "type": "string"
        },
        {
          "internalType": "uint16",
          "name": "editions",
          "type": "uint16"
        }
      ],
      "name": "mint",
      "outputs": [],
      "stateMutability": "nonpayable",
      "type": "function"
    },
    {
      "inputs": [
        {
          "internalType": "uint8",
          "name": "size",
          "type": "uint8"
        },
        {
          "internalType": "string",
          "name": "baseURI",
          "type": "string"
        },
        {
          "internalType": "uint16",
          "name": "editions",
          "type": "uint16"
        }
      ],
      "name": "mintBatch",
      "outputs": [],
      "stateMutability": "nonpayable",
      "type": "function"
    },
    {
      "inputs": [],
      "name": "owner",
      "outputs": [
        {
          "internalType": "address",
          "name": "",
          "type": "address"
        }
      ],
      "stateMutability": "view",
      "type": "function"
    },
    {
      "inputs": [],
      "name": "renounceOwnership",
      "outputs": [],
      "stateMutability": "nonpayable",
      "type": "function"
    },
    {
      "inputs": [
        {
          "internalType": "address",
          "name": "from",
          "type": "address"
        },
        {
          "internalType": "address",
          "name": "to",
          "type": "address"
        },
        {
          "internalType": "uint256[]",
          "name": "ids",
          "type": "uint256[]"
        },
        {
          "internalType": "uint256[]",
          "name": "amounts",
          "type": "uint256[]"
        },
        {
          "internalType": "bytes",
          "name": "data",
          "type": "bytes"
        }
      ],
      "name": "safeBatchTransferFrom",
      "outputs": [],
      "stateMutability": "nonpayable",
      "type": "function"
    },
    {
      "inputs": [
        {
          "internalType": "address",
          "name": "from",
          "type": "address"
        },
        {
          "internalType": "address",
          "name": "to",
          "type": "address"
        },
        {
          "internalType": "uint256",
          "name": "id",
          "type": "uint256"
        },
        {
          "internalType": "uint256",
          "name": "amount",
          "type": "uint256"
        },
        {
          "internalType": "bytes",
          "name": "data",
          "type": "bytes"
        }
      ],
      "name": "safeTransferFrom",
      "outputs": [],
      "stateMutability": "nonpayable",
      "type": "function"
    },
    {
      "inputs": [
        {
          "internalType": "address",
          "name": "operator",
          "type": "address"
        },
        {
          "internalType": "bool",
          "name": "approved",
          "type": "bool"
        }
      ],
      "name": "setApprovalForAll",
      "outputs": [],
      "stateMutability": "nonpayable",
      "type": "function"
    },
    {
      "inputs": [
        {
          "internalType": "string",
          "name": "ipfsBaseURI",
          "type": "string"
        }
      ],
      "name": "setBaseURI",
      "outputs": [],
      "stateMutability": "nonpayable",
      "type": "function"
    },
    {
      "inputs": [
        {
          "internalType": "bytes4",
          "name": "interfaceId",
          "type": "bytes4"
        }
      ],
      "name": "supportsInterface",
      "outputs": [
        {
          "internalType": "bool",
          "name": "",
          "type": "bool"
        }
      ],
      "stateMutability": "view",
      "type": "function"
    },
    {
      "inputs": [
        {
          "internalType": "address",
          "name": "newOwner",
          "type": "address"
        }
      ],
      "name": "transferOwnership",
      "outputs": [],
      "stateMutability": "nonpayable",
      "type": "function"
    },
    {
      "inputs": [
        {
          "internalType": "uint256",
          "name": "id",
          "type": "uint256"
        }
      ],
      "name": "uri",
      "outputs": [
        {
          "internalType": "string",
          "name": "",
          "type": "string"
        }
      ],
      "stateMutability": "view",
      "type": "function"
    }
  ],
  "transactionHash": "0x1de49810027b1fada9683141ef927ef38a337792388cb2c1c4883b3640dbda20",
  "args": [
    true
  ],
  "solcInputHash": "4a4840895adb22f6cfd6b47aee086da7",
  "bytecode": "0x60806040523480156200001157600080fd5b50604051620022f4380380620022f4833981016040819052620000349162000183565b6040805160208101909152600081526200004e81620000c0565b5060006200005b620000d9565b600380546001600160a01b0319166001600160a01b038316908117909155604051919250906000907f8be0079c531659141344cd1fd0a4f28419497f9722a3daafe3b4186f6b6457e0908290a3506005805460ff1916911515919091179055620001e9565b8051620000d5906002906020840190620000dd565b5050565b3390565b828054620000eb90620001ac565b90600052602060002090601f0160209004810192826200010f57600085556200015a565b82601f106200012a57805160ff19168380011785556200015a565b828001600101855582156200015a579182015b828111156200015a5782518255916020019190600101906200013d565b50620001689291506200016c565b5090565b5b808211156200016857600081556001016200016d565b60006020828403121562000195578081fd5b81518015158114620001a5578182fd5b9392505050565b600281046001821680620001c157607f821691505b60208210811415620001e357634e487b7160e01b600052602260045260246000fd5b50919050565b6120fb80620001f96000396000f3fe608060405234801561001057600080fd5b50600436106100f45760003560e01c80635a1f3c2811610097578063ab3491f911610066578063ab3491f91461020d578063e985e9c514610220578063f242432a14610233578063f2fde38b14610246576100f4565b80635a1f3c28146101bd578063715018a6146101dd5780638da5cb5b146101e5578063a22cb465146101fa576100f4565b80632eb2c2d6116100d35780632eb2c2d6146101625780633f2eaea2146101775780634e1273f41461018a57806355f804b3146101aa576100f4565b8062fdd58e146100f957806301ffc9a7146101225780630e89341c14610142575b600080fd5b61010c61010736600461160d565b610259565b6040516101199190611e29565b60405180910390f35b6101356101303660046116f4565b6102b0565b6040516101199190611a4c565b6101556101503660046117aa565b6102f8565b6040516101199190611a57565b6101756101703660046114ca565b6103c6565b005b610175610185366004611767565b61062c565b61019d610198366004611636565b61072e565b6040516101199190611a0b565b6101756101b836600461172c565b61084e565b6101d06101cb3660046117aa565b6108a0565b6040516101199190611e1a565b6101756108b6565b6101ed61093f565b6040516101199190611961565b6101756102083660046115d3565b61094f565b61017561021b3660046117c2565b610a1d565b61013561022e366004611498565b610b35565b610175610241366004611570565b610b63565b610175610254366004611477565b610cf9565b60006001600160a01b03831661028a5760405162461bcd60e51b815260040161028190611b0f565b60405180910390fd5b506000908152602081815260408083206001600160a01b03949094168352929052205490565b60006001600160e01b03198216636cdb3d1360e11b14806102e157506001600160e01b031982166303a24d0760e21b145b806102f057506102f082610dba565b90505b919050565b60008181526008602052604090205460609061ffff16156103b25760008281526008602090815260408083205461ffff16808452600683528184208251808401845260018152602f60f81b818601528286526007909452919093205490919061036a906103659087611f3c565b610dd3565b60405180604001604052806005815260200164173539b7b760d91b81525060405160200161039b94939291906118a7565b6040516020818303038152906040529150506102f3565b505060408051602081019091526000815290565b81518351146103e75760405162461bcd60e51b815260040161028190611d91565b6001600160a01b03841661040d5760405162461bcd60e51b815260040161028190611be9565b610415610f19565b6001600160a01b0316856001600160a01b0316148061043b575061043b8561022e610f19565b6104575760405162461bcd60e51b815260040161028190611c2e565b6000610461610f19565b9050610471818787878787610624565b60005b84518110156105be57600085828151811061049f57634e487b7160e01b600052603260045260246000fd5b6020026020010151905060008583815181106104cb57634e487b7160e01b600052603260045260246000fd5b602090810291909101810151600084815280835260408082206001600160a01b038e16835290935291909120549091508181101561051b5760405162461bcd60e51b815260040161028190611c80565b6105258282611f3c565b60008085815260200190815260200160002060008c6001600160a01b03166001600160a01b03168152602001908152602001600020819055508160008085815260200190815260200160002060008b6001600160a01b03166001600160a01b0316815260200190815260200160002060008282546105a39190611ec0565b92505081905550505050806105b790611fba565b9050610474565b50846001600160a01b0316866001600160a01b0316826001600160a01b03167f4a39dc06d4c0dbc64b70af90fd698a233a518aa5d07e595d983b8c0526c8f7fb878760405161060e929190611a1e565b60405180910390a4610624818787878787610f1d565b505050505050565b60055460ff168061065c5750610640610f19565b6001600160a01b031661065161093f565b6001600160a01b0316145b6106785760405162461bcd60e51b815260040161028190611cca565b6106818261102b565b60055460089060009061069e90610100900461ffff166001611e9a565b61ffff90811682526020820192909252604001600020805461ffff1916928216929092179091556005805460019283916106df918391610100900416611e9a565b92506101000a81548161ffff021916908361ffff16021790555061072a610704610f19565b60055460408051602081019091526000815261ffff6101009092048216918516906110c7565b5050565b606081518351146107515760405162461bcd60e51b815260040161028190611d48565b6000835167ffffffffffffffff81111561077b57634e487b7160e01b600052604160045260246000fd5b6040519080825280602002602001820160405280156107a4578160200160208202803683370190505b50905060005b84518110156108465761080b8582815181106107d657634e487b7160e01b600052603260045260246000fd5b60200260200101518583815181106107fe57634e487b7160e01b600052603260045260246000fd5b6020026020010151610259565b82828151811061082b57634e487b7160e01b600052603260045260246000fd5b602090810291909101015261083f81611fba565b90506107aa565b509392505050565b610856610f19565b6001600160a01b031661086761093f565b6001600160a01b03161461088d5760405162461bcd60e51b815260040161028190611cca565b805161072a9060049060208401906112de565b60009081526008602052604090205461ffff1690565b6108be610f19565b6001600160a01b03166108cf61093f565b6001600160a01b0316146108f55760405162461bcd60e51b815260040161028190611cca565b6003546040516000916001600160a01b0316907f8be0079c531659141344cd1fd0a4f28419497f9722a3daafe3b4186f6b6457e0908390a3600380546001600160a01b0319169055565b6003546001600160a01b03165b90565b816001600160a01b0316610961610f19565b6001600160a01b031614156109885760405162461bcd60e51b815260040161028190611cff565b8060016000610995610f19565b6001600160a01b03908116825260208083019390935260409182016000908120918716808252919093529120805460ff1916921515929092179091556109d9610f19565b6001600160a01b03167f17307eab39ab6107e8899845ad3d59bd9653f200f220920489ca2b5937696c3183604051610a119190611a4c565b60405180910390a35050565b60055460ff1680610a4d5750610a31610f19565b6001600160a01b0316610a4261093f565b6001600160a01b0316145b610a695760405162461bcd60e51b815260040161028190611cca565b610a728261102b565b5060005b8360ff168160ff161015610b2f576001600560018282829054906101000a900461ffff16610aa49190611e9a565b825461ffff91821661010093840a908102908302199091161790925560055490810482166000908152600860205260409020805461ffff1916630100000090920490921617905550610b1d610af7610f19565b60055460408051602081019091526000815261ffff6101009092048216918616906110c7565b610b28600182611ed8565b9050610a76565b50505050565b6001600160a01b03918216600090815260016020908152604080832093909416825291909152205460ff1690565b6001600160a01b038416610b895760405162461bcd60e51b815260040161028190611be9565b610b91610f19565b6001600160a01b0316856001600160a01b03161480610bb75750610bb78561022e610f19565b610bd35760405162461bcd60e51b815260040161028190611ba0565b6000610bdd610f19565b9050610bfd818787610bee886111ae565b610bf7886111ae565b87610624565b6000848152602081815260408083206001600160a01b038a16845290915290205483811015610c3e5760405162461bcd60e51b815260040161028190611c80565b610c488482611f3c565b6000868152602081815260408083206001600160a01b038c81168552925280832093909355881681529081208054869290610c84908490611ec0565b92505081905550856001600160a01b0316876001600160a01b0316836001600160a01b03167fc3d58168c5ae7397731d063d5bbf3d657854427343f4c083240f7aacaa2d0f628888604051610cda929190611e32565b60405180910390a4610cf0828888888888611207565b50505050505050565b610d01610f19565b6001600160a01b0316610d1261093f565b6001600160a01b031614610d385760405162461bcd60e51b815260040161028190611cca565b6001600160a01b038116610d5e5760405162461bcd60e51b815260040161028190611b5a565b6003546040516001600160a01b038084169216907f8be0079c531659141344cd1fd0a4f28419497f9722a3daafe3b4186f6b6457e090600090a3600380546001600160a01b0319166001600160a01b0392909216919091179055565b6001600160e01b031981166301ffc9a760e01b14919050565b606081610df857506040805180820190915260018152600360fc1b60208201526102f3565b8160005b8115610e225780610e0c81611fba565b9150610e1b9050600a83611efd565b9150610dfc565b60008167ffffffffffffffff811115610e4b57634e487b7160e01b600052604160045260246000fd5b6040519080825280601f01601f191660200182016040528015610e75576020820181803683370190505b509050815b8515610f1057610e8b600182611f3c565b90506000610e9a600a88611efd565b610ea590600a611f1d565b610eaf9088611f3c565b610eba906030611ed8565b905060008160f81b905080848481518110610ee557634e487b7160e01b600052603260045260246000fd5b60200101906001600160f81b031916908160001a905350610f07600a89611efd565b97505050610e7a565b50949350505050565b3390565b610f2f846001600160a01b03166112d8565b156106245760405163bc197c8160e01b81526001600160a01b0385169063bc197c8190610f689089908990889088908890600401611975565b602060405180830381600087803b158015610f8257600080fd5b505af1925050508015610fb2575060408051601f3d908101601f19168201909252610faf91810190611710565b60015b610ffb57610fbe612007565b80610fc95750610fe3565b8060405162461bcd60e51b81526004016102819190611a57565b60405162461bcd60e51b815260040161028190611a6a565b6001600160e01b0319811663bc197c8160e01b14610cf05760405162461bcd60e51b815260040161028190611ac7565b60006001600560038282829054906101000a900461ffff1661104d9190611e9a565b825461ffff91821661010093840a9081029083021990911617909255600580546301000000808204851660009081526007602090815260408083209690940487169095559254049093168152600682529190912084516110b2935090918501906112de565b50506005546301000000900461ffff16919050565b6001600160a01b0384166110ed5760405162461bcd60e51b815260040161028190611dd9565b60006110f7610f19565b905061110981600087610bee886111ae565b6000848152602081815260408083206001600160a01b038916845290915281208054859290611139908490611ec0565b92505081905550846001600160a01b031660006001600160a01b0316826001600160a01b03167fc3d58168c5ae7397731d063d5bbf3d657854427343f4c083240f7aacaa2d0f628787604051611190929190611e32565b60405180910390a46111a781600087878787611207565b5050505050565b604080516001808252818301909252606091600091906020808301908036833701905050905082816000815181106111f657634e487b7160e01b600052603260045260246000fd5b602090810291909101015292915050565b611219846001600160a01b03166112d8565b156106245760405163f23a6e6160e01b81526001600160a01b0385169063f23a6e619061125290899089908890889088906004016119d3565b602060405180830381600087803b15801561126c57600080fd5b505af192505050801561129c575060408051601f3d908101601f1916820190925261129991810190611710565b60015b6112a857610fbe612007565b6001600160e01b0319811663f23a6e6160e01b14610cf05760405162461bcd60e51b815260040161028190611ac7565b3b151590565b8280546112ea90611f7f565b90600052602060002090601f01602090048101928261130c5760008555611352565b82601f1061132557805160ff1916838001178555611352565b82800160010185558215611352579182015b82811115611352578251825591602001919060010190611337565b5061135e929150611362565b5090565b5b8082111561135e5760008155600101611363565b80356001600160a01b03811681146102f357600080fd5b600082601f83011261139e578081fd5b813560206113b36113ae83611e6a565b611e40565b82815281810190858301838502870184018810156113cf578586fd5b855b858110156113ed578135845292840192908401906001016113d1565b5090979650505050505050565b600082601f83011261140a578081fd5b813567ffffffffffffffff81111561142457611424611feb565b611437601f8201601f1916602001611e40565b81815284602083860101111561144b578283fd5b816020850160208301379081016020019190915292915050565b803561ffff811681146102f357600080fd5b600060208284031215611488578081fd5b61149182611377565b9392505050565b600080604083850312156114aa578081fd5b6114b383611377565b91506114c160208401611377565b90509250929050565b600080600080600060a086880312156114e1578081fd5b6114ea86611377565b94506114f860208701611377565b9350604086013567ffffffffffffffff80821115611514578283fd5b61152089838a0161138e565b94506060880135915080821115611535578283fd5b61154189838a0161138e565b93506080880135915080821115611556578283fd5b50611563888289016113fa565b9150509295509295909350565b600080600080600060a08688031215611587578081fd5b61159086611377565b945061159e60208701611377565b93506040860135925060608601359150608086013567ffffffffffffffff8111156115c7578182fd5b611563888289016113fa565b600080604083850312156115e5578182fd5b6115ee83611377565b915060208301358015158114611602578182fd5b809150509250929050565b6000806040838503121561161f578182fd5b61162883611377565b946020939093013593505050565b60008060408385031215611648578182fd5b823567ffffffffffffffff8082111561165f578384fd5b818501915085601f830112611672578384fd5b813560206116826113ae83611e6a565b82815281810190858301838502870184018b101561169e578889fd5b8896505b848710156116c7576116b381611377565b8352600196909601959183019183016116a2565b50965050860135925050808211156116dd578283fd5b506116ea8582860161138e565b9150509250929050565b600060208284031215611705578081fd5b8135611491816120ac565b600060208284031215611721578081fd5b8151611491816120ac565b60006020828403121561173d578081fd5b813567ffffffffffffffff811115611753578182fd5b61175f848285016113fa565b949350505050565b60008060408385031215611779578182fd5b823567ffffffffffffffff81111561178f578283fd5b61179b858286016113fa565b9250506114c160208401611465565b6000602082840312156117bb578081fd5b5035919050565b6000806000606084860312156117d6578081fd5b833560ff811681146117e6578182fd5b9250602084013567ffffffffffffffff811115611801578182fd5b61180d868287016113fa565b92505061181c60408501611465565b90509250925092565b6000815180845260208085019450808401835b8381101561185457815187529582019590820190600101611838565b509495945050505050565b60008151808452611877816020860160208601611f53565b601f01601f19169290920160200192915050565b6000815161189d818560208601611f53565b9290920192915050565b84546000908190600281046001808316806118c357607f831692505b60208084108214156118e357634e487b7160e01b87526022600452602487fd5b8180156118f7576001811461190857611934565b60ff19861689528489019650611934565b6119118d611e8e565b885b8681101561192c5781548b820152908501908301611913565b505084890196505b50505050505061195661195061194a838961188b565b8761188b565b8561188b565b979650505050505050565b6001600160a01b0391909116815260200190565b60006001600160a01b03808816835280871660208401525060a060408301526119a160a0830186611825565b82810360608401526119b38186611825565b905082810360808401526119c7818561185f565b98975050505050505050565b60006001600160a01b03808816835280871660208401525084604083015283606083015260a0608083015261195660a083018461185f565b6000602082526114916020830184611825565b600060408252611a316040830185611825565b8281036020840152611a438185611825565b95945050505050565b901515815260200190565b600060208252611491602083018461185f565b60208082526034908201527f455243313135353a207472616e7366657220746f206e6f6e204552433131353560408201527f526563656976657220696d706c656d656e746572000000000000000000000000606082015260800190565b60208082526028908201527f455243313135353a204552433131353552656365697665722072656a656374656040820152676420746f6b656e7360c01b606082015260800190565b6020808252602b908201527f455243313135353a2062616c616e636520717565727920666f7220746865207a60408201526a65726f206164647265737360a81b606082015260800190565b60208082526026908201527f4f776e61626c653a206e6577206f776e657220697320746865207a65726f206160408201526564647265737360d01b606082015260800190565b60208082526029908201527f455243313135353a2063616c6c6572206973206e6f74206f776e6572206e6f7260408201526808185c1c1c9bdd995960ba1b606082015260800190565b60208082526025908201527f455243313135353a207472616e7366657220746f20746865207a65726f206164604082015264647265737360d81b606082015260800190565b60208082526032908201527f455243313135353a207472616e736665722063616c6c6572206973206e6f74206040820152711bdddb995c881b9bdc88185c1c1c9bdd995960721b606082015260800190565b6020808252602a908201527f455243313135353a20696e73756666696369656e742062616c616e636520666f60408201526939103a3930b739b332b960b11b606082015260800190565b6020808252818101527f4f776e61626c653a2063616c6c6572206973206e6f7420746865206f776e6572604082015260600190565b60208082526029908201527f455243313135353a2073657474696e6720617070726f76616c20737461747573604082015268103337b91039b2b63360b91b606082015260800190565b60208082526029908201527f455243313135353a206163636f756e747320616e6420696473206c656e677468604082015268040dad2e6dac2e8c6d60bb1b606082015260800190565b60208082526028908201527f455243313135353a2069647320616e6420616d6f756e7473206c656e677468206040820152670dad2e6dac2e8c6d60c31b606082015260800190565b60208082526021908201527f455243313135353a206d696e7420746f20746865207a65726f206164647265736040820152607360f81b606082015260800190565b61ffff91909116815260200190565b90815260200190565b918252602082015260400190565b60405181810167ffffffffffffffff81118282101715611e6257611e62611feb565b604052919050565b600067ffffffffffffffff821115611e8457611e84611feb565b5060209081020190565b60009081526020902090565b600061ffff808316818516808303821115611eb757611eb7611fd5565b01949350505050565b60008219821115611ed357611ed3611fd5565b500190565b600060ff821660ff84168060ff03821115611ef557611ef5611fd5565b019392505050565b600082611f1857634e487b7160e01b81526012600452602481fd5b500490565b6000816000190483118215151615611f3757611f37611fd5565b500290565b600082821015611f4e57611f4e611fd5565b500390565b60005b83811015611f6e578181015183820152602001611f56565b83811115610b2f5750506000910152565b600281046001821680611f9357607f821691505b60208210811415611fb457634e487b7160e01b600052602260045260246000fd5b50919050565b6000600019821415611fce57611fce611fd5565b5060010190565b634e487b7160e01b600052601160045260246000fd5b634e487b7160e01b600052604160045260246000fd5b60e01c90565b600060443d10156120175761094c565b600481823e6308c379a061202b8251612001565b146120355761094c565b6040513d600319016004823e80513d67ffffffffffffffff8160248401118184111715612065575050505061094c565b8284019250825191508082111561207f575050505061094c565b503d830160208284010111156120975750505061094c565b601f01601f1916810160200160405291505090565b6001600160e01b0319811681146120c257600080fd5b5056fea2646970667358221220c11eecd84d220c23333ec64c0aead6cc31beed9a55870a40986da491385107c564736f6c63430008000033",
  "devdoc": {
    "kind": "dev",
    "methods": {
      "balanceOf(address,uint256)": {
        "details": "See {IERC1155-balanceOf}. Requirements: - `account` cannot be the zero address."
      },
      "balanceOfBatch(address[],uint256[])": {
        "details": "See {IERC1155-balanceOfBatch}. Requirements: - `accounts` and `ids` must have the same length."
      },
      "isApprovedForAll(address,address)": {
        "details": "See {IERC1155-isApprovedForAll}."
      },
      "owner()": {
        "details": "Returns the address of the current owner."
      },
      "renounceOwnership()": {
        "details": "Leaves the contract without owner. It will not be possible to call `onlyOwner` functions anymore. Can only be called by the current owner. NOTE: Renouncing ownership will leave the contract without an owner, thereby removing any functionality that is only available to the owner."
      },
      "safeBatchTransferFrom(address,address,uint256[],uint256[],bytes)": {
        "details": "See {IERC1155-safeBatchTransferFrom}."
      },
      "safeTransferFrom(address,address,uint256,uint256,bytes)": {
        "details": "See {IERC1155-safeTransferFrom}."
      },
      "setApprovalForAll(address,bool)": {
        "details": "See {IERC1155-setApprovalForAll}."
      },
      "supportsInterface(bytes4)": {
        "details": "See {IERC165-supportsInterface}."
      },
      "transferOwnership(address)": {
        "details": "Transfers ownership of the contract to a new account (`newOwner`). Can only be called by the current owner."
      }
    },
    "version": 1
  },
  "userdoc": {
    "kind": "user",
    "methods": {},
    "version": 1
  },
  "storageLayout": {
    "storage": [
      {
        "astId": 135,
        "contract": "contracts/Collectable.sol:Collectable",
        "label": "_balances",
        "offset": 0,
        "slot": "0",
        "type": "t_mapping(t_uint256,t_mapping(t_address,t_uint256))"
      },
      {
        "astId": 141,
        "contract": "contracts/Collectable.sol:Collectable",
        "label": "_operatorApprovals",
        "offset": 0,
        "slot": "1",
        "type": "t_mapping(t_address,t_mapping(t_address,t_bool))"
      },
      {
        "astId": 143,
        "contract": "contracts/Collectable.sol:Collectable",
        "label": "_uri",
        "offset": 0,
        "slot": "2",
        "type": "t_string_storage"
      },
      {
        "astId": 7,
        "contract": "contracts/Collectable.sol:Collectable",
        "label": "_owner",
        "offset": 0,
        "slot": "3",
        "type": "t_address"
      },
      {
        "astId": 1704,
        "contract": "contracts/Collectable.sol:Collectable",
        "label": "_uri",
        "offset": 0,
        "slot": "4",
        "type": "t_string_storage"
      },
      {
        "astId": 1706,
        "contract": "contracts/Collectable.sol:Collectable",
        "label": "_everyoneMint",
        "offset": 0,
        "slot": "5",
        "type": "t_bool"
      },
      {
        "astId": 1708,
        "contract": "contracts/Collectable.sol:Collectable",
        "label": "_atToken",
        "offset": 1,
        "slot": "5",
        "type": "t_uint16"
      },
      {
        "astId": 1710,
        "contract": "contracts/Collectable.sol:Collectable",
        "label": "_collectionId",
        "offset": 3,
        "slot": "5",
        "type": "t_uint16"
      },
      {
        "astId": 1714,
        "contract": "contracts/Collectable.sol:Collectable",
        "label": "_collections",
        "offset": 0,
        "slot": "6",
        "type": "t_mapping(t_uint16,t_string_storage)"
      },
      {
        "astId": 1718,
        "contract": "contracts/Collectable.sol:Collectable",
        "label": "_collectionOffset",
        "offset": 0,
        "slot": "7",
        "type": "t_mapping(t_uint16,t_uint256)"
      },
      {
        "astId": 1722,
        "contract": "contracts/Collectable.sol:Collectable",
        "label": "_idToCollection",
        "offset": 0,
        "slot": "8",
        "type": "t_mapping(t_uint256,t_uint16)"
      }
    ],
    "types": {
      "t_address": {
        "encoding": "inplace",
        "label": "address",
        "numberOfBytes": "20"
      },
      "t_bool": {
        "encoding": "inplace",
        "label": "bool",
        "numberOfBytes": "1"
      },
      "t_mapping(t_address,t_bool)": {
        "encoding": "mapping",
        "key": "t_address",
        "label": "mapping(address => bool)",
        "numberOfBytes": "32",
        "value": "t_bool"
      },
      "t_mapping(t_address,t_mapping(t_address,t_bool))": {
        "encoding": "mapping",
        "key": "t_address",
        "label": "mapping(address => mapping(address => bool))",
        "numberOfBytes": "32",
        "value": "t_mapping(t_address,t_bool)"
      },
      "t_mapping(t_address,t_uint256)": {
        "encoding": "mapping",
        "key": "t_address",
        "label": "mapping(address => uint256)",
        "numberOfBytes": "32",
        "value": "t_uint256"
      },
      "t_mapping(t_uint16,t_string_storage)": {
        "encoding": "mapping",
        "key": "t_uint16",
        "label": "mapping(uint16 => string)",
        "numberOfBytes": "32",
        "value": "t_string_storage"
      },
      "t_mapping(t_uint16,t_uint256)": {
        "encoding": "mapping",
        "key": "t_uint16",
        "label": "mapping(uint16 => uint256)",
        "numberOfBytes": "32",
        "value": "t_uint256"
      },
      "t_mapping(t_uint256,t_mapping(t_address,t_uint256))": {
        "encoding": "mapping",
        "key": "t_uint256",
        "label": "mapping(uint256 => mapping(address => uint256))",
        "numberOfBytes": "32",
        "value": "t_mapping(t_address,t_uint256)"
      },
      "t_mapping(t_uint256,t_uint16)": {
        "encoding": "mapping",
        "key": "t_uint256",
        "label": "mapping(uint256 => uint16)",
        "numberOfBytes": "32",
        "value": "t_uint16"
      },
      "t_string_storage": {
        "encoding": "bytes",
        "label": "string",
        "numberOfBytes": "32"
      },
      "t_uint16": {
        "encoding": "inplace",
        "label": "uint16",
        "numberOfBytes": "2"
      },
      "t_uint256": {
        "encoding": "inplace",
        "label": "uint256",
        "numberOfBytes": "32"
      }
    }
  }
}